:0400000058EF00F0C5
:100008003A82FACF21F0FBCF22F0D9CF23F0DACF12
:1000180024F0F2AC12EF00F014EF00F04EEF00F015
:100028009DA819EF00F01BEF00F031EF00F09EA83B
:1000380020EF00F022EF00F031EF00F002D82FEFB0
:1000480000F00500FA6E3750FD6E3850FE6EF8501D
:10005800FF6EFA5012004EEF00F09DAA36EF00F046
:1000680038EF00F04EEF00F09EAA3DEF00F03FEFB2
:1000780000F04EEF00F002D84CEF00F00500FA6EE9
:100088003550FD6E3650FE6EF850FF6EFA50120075
:100098004EEF00F024C0DAFF23C0D9FF22C0FBFFD7
:1000A80021C0FAFF3A92110026EF05F0D4EF00F0D4
:1000B80081B061EF00F065EF00F0276A272A66EF4C
:1000C80000F0276A2750296E2A6A02EF01F081B2F0
:1000D80070EF00F074EF00F0276A272A75EF00F040
:1000E800276A2750296E2A6A02EF01F081B47FEF50
:1000F80000F083EF00F0276A272A84EF00F0276AD0
:100108002750296E2A6A02EF01F081B68EEF00F0BF
:1001180092EF00F0276A272A93EF00F0276A27500A
:10012800296E2A6A02EF01F081B89DEF00F0A1EF75
:1001380000F0276A272AA2EF00F0276A2750296EC5
:100148002A6A02EF01F081BAACEF00F0B0EF00F0DC
:10015800276A272AB1EF00F0276A2750296E2A6AF2
:1001680002EF01F081BCBBEF00F0BFEF00F0276A9F
:10017800272AC0EF00F0276A2750296E2A6A02EF63
:1001880001F081BECAEF00F0CEEF00F0276A272AFF
:10019800CFEF00F0276A2750296E2A6A02EF01F094
:1001A80025C027F026C028F02850000AD8B4DFEF71
:1001B80000F002EF01F027503C0AD8B45CEF00F0E1
:1001C800010AD8B46BEF00F0030AD8B47AEF00F054
:1001D800010AD8B489EF00F07F0AD8B498EF00F08C
:1001E800010AD8B4A7EF00F0030AD8B4B6EF00F0BC
:1001F800010AD8B4C5EF00F002EF01F029C025F0DC
:100208002AC026F0120033EC05F0000E266E3C0ED4
:10021800256E5AEC00F025502610D8A416EF01F0F0
:1002280018EF01F029EF01F0000E266E430E256E3F
:100238005AEC00F025502610D8A425EF01F027EF3E
:1002480001F029EF01F0DFEC03F0000E266E3C0E02
:10025800256E5AEC00F025502610D8B436EF01F080
:1002680038EF01F049EF01F0000E266E430E256EBF
:100278005AEC00F025502610D8A445EF01F047EFBE
:1002880001F049EF01F025EC03F0000E266E3C0E5C
:10029800256E5AEC00F025502610D8A456EF01F030
:1002A80058EF01F069EF01F0000E266E430E256E3F
:1002B8005AEC00F025502610D8B465EF01F067EF2E
:1002C80001F069EF01F082EC03F0000E266E3C0E9F
:1002D800256E5AEC00F025502610D8B476EF01F0C0
:1002E80078EF01F009EF01F0000E266E430E256E3F
:1002F8005AEC00F025502610D8B485EF01F087EFAE
:1003080001F009EF01F019501A10D8A48EEF01F08E
:1003180090EF01F098EF01F03BEC04F0000E1A6E3C
:10032800010E196E09EF01F0E5EC04F0FE0E2E6ED9
:10033800A70E2D6E660EE82EFED72D2EFCD72E2E7C
:10034800FAD709EF01F058EF00F0E1EF01F08980EA
:1003580037EF02F0898237EF02F0898437EF02F035
:10036800898637EF02F0898A37EF02F08A8237EF01
:1003780002F08A8437EF02F08A8637EF02F08A8823
:1003880037EF02F08A8A37EF02F08A8C37EF02F0F3
:100398008A8E37EF02F08B8037EF02F08B8237EFCF
:1003A80002F08B8437EF02F08B8637EF02F08B88F0
:1003B80037EF02F08B8A37EF02F025C027F026C00E
:1003C80028F02850000AD8B4ECEF01F037EF02F01B
:1003D8002750320AD8B4ABEF01F0010AD8B4AEEF17
:1003E80001F0070AD8B4B1EF01F0010AD8B4B4EFAC
:1003F80001F0020AD8B4B7EF01F00A0AD8B4BAEF8C
:1004080001F0030AD8B4BDEF01F0010AD8B4C0EF77
:1004180001F07F0AD8B4C3EF01F0010AD8B4C6EFDF
:1004280001F0030AD8B4C9EF01F0010AD8B4CCEF3F
:1004380001F0050AD8B4CFEF01F0010AD8B4D2EF21
:1004480001F00F0AD8B4D5EF01F0010AD8B4D8EFFB
:1004580001F0030AD8B4DBEF01F0010AD8B4DEEFEB
:1004680001F037EF02F0120070EF02F08990C6EF4A
:1004780002F08992C6EF02F08994C6EF02F08996DD
:10048800C6EF02F0899AC6EF02F08A92C6EF02F030
:100498008A94C6EF02F08A96C6EF02F08A98C6EFF1
:1004A80002F08A9AC6EF02F08A9CC6EF02F08A9E92
:1004B800C6EF02F08B90C6EF02F08B92C6EF02F007
:1004C8008B94C6EF02F08B96C6EF02F08B98C6EFBE
:1004D80002F08B9AC6EF02F025C027F026C028F05C
:1004E8002850000AD8B47BEF02F0C6EF02F027507C
:1004F800320AD8B43AEF02F0010AD8B43DEF02F05C
:10050800070AD8B440EF02F0010AD8B443EF02F06A
:10051800020AD8B446EF02F00A0AD8B449EF02F04A
:10052800030AD8B44CEF02F0010AD8B44FEF02F036
:100538007F0AD8B452EF02F0010AD8B455EF02F09E
:10054800030AD8B458EF02F0010AD8B45BEF02F0FE
:10055800050AD8B45EEF02F0010AD8B461EF02F0E0
:100568000F0AD8B464EF02F0010AD8B467EF02F0BA
:10057800030AD8B46AEF02F0010AD8B46DEF02F0AA
:10058800C6EF02F01200010E1E24D96EDA6A000EC0
:10059800DA22000EDF6EABA4D4EF02F0D6EF02F041
:1005A800EAEF02F0010E1E24D96EDA6A000EDA2292
:1005B800DF8202D8EAEF02F00500FA6E3350FD6ED2
:1005C8003450FE6EF850FF6EFA501200ABA2EFEFF7
:1005D80002F0F1EF02F005EF03F0010E1E24D96ED0
:1005E800DA6A000EDA22DF8402D805EF03F005008C
:1005F800FA6E3150FD6E3250FE6EF850FF6EFA50B2
:100608001200010E1E24D96EDA6A000EDA22DF50BB
:10061800D8B411EF03F013EF03F022EF03F002D880
:1006280020EF03F00500FA6E2F50FD6E3050FE6E7D
:10063800F850FF6EFA50120024EF03F0FDEC04F0BE
:100648001200000E266E320E256E38EC02F0000EF7
:10065800266E330E256EA9EC01F0000E266E340EC0
:10066800256EA9EC01F0000E266E350E256E38ECCD
:1006780002F061EF03F0000E266E470E256EA9EC1E
:1006880001F0000E266E480E256EA9EC01F0C80E8A
:1006980000D0E82EFDD7000E266E470E256E38ECEA
:1006A80002F0000E266E480E256E38EC02F0D60ECB
:1006B80000D000D0E82EFCD700D0000E266E3C0EED
:1006C800256E5AEC00F025502610D8B46EEF03F0D2
:1006D80070EF03F07FEF03F0000E266E430E256ED9
:1006E8005AEC00F025502610D8B47DEF03F07FEFC8
:1006F80003F03FEF03F0E5EC04F01200000E266E65
:10070800320E256EA9EC01F0000E266E330E256E12
:1007180038EC02F0000E266E340E256E38EC02F02E
:10072800000E266E350E256EA9EC01F0BEEF03F023
:10073800000E266E470E256EA9EC01F0000E266EFF
:10074800480E256EA9EC01F0C80E00D0E82EFDD7A2
:10075800000E266E470E256E38EC02F0000E266E4F
:10076800480E256E38EC02F0D60E00D000D0E82EE8
:10077800FCD700D0000E266E3C0E256E5AEC00F019
:1007880025502610D8A4CBEF03F0CDEF03F0DCEF13
:1007980003F0000E266E430E256E5AEC00F025502D
:1007A8002610D8A4DAEF03F0DCEF03F09CEF03F097
:1007B800E5EC04F01200000E266E320E256EA9EC50
:1007C80001F0000E266E330E256E38EC02F0000E96
:1007D800266E340E256EA9EC01F0000E266E350E3D
:1007E800256E38EC02F01AEF04F0000E266E470E64
:1007F800256EA9EC01F0000E266E480E256EA9ECB8
:1008080001F0DC0E00D0E82EFDD7000E266E470E54
:10081800256E38EC02F0000E266E480E256E38EC78
:1008280002F0C80E00D000D0E82EFCD7000E266ECD
:100838003C0E256E5AEC00F025502610D8A427EF60
:1008480004F029EF04F038EF04F0000E266E430E92
:10085800256E5AEC00F025502610D8B436EF04F077
:1008680038EF04F0F9EF03F0E5EC04F01200000EA5
:10087800266E320E256EA9EC01F0000E266E330EA0
:10088800256E38EC02F0000E266E340E256EA9ECAB
:1008980001F0000E266E350E256E38EC02F0000EC3
:1008A8002C6E000E2B6E000E266E470E256EA9ECE0
:1008B80001F0000E266E480E256EA9EC01F0DC0E44
:1008C80000D0E82EFDD7000E266E470E256E38ECB8
:1008D80002F0000E266E480E256E38EC02F0C80EA7
:1008E80000D000D0E82EFCD72B4A2C2A2CBE86EF4D
:1008F80004F0F40E2B5C010E2C58D8A086EF04F0FF
:1009080088EF04F057EF04F0E5EC04F012009D9A2C
:100918008E0E256E050E266E4AEC05F09D988A0E01
:10092800256E090E266E45EC05F0080EA76E900E92
:10093800AB6E240EAC6E080EAF6E020E7D6ECC0E42
:10094800256E0A0E266E54EC05F0BC0E256E0A0EB6
:10095800266E4FEC05F0C20E256E0A0E266E59EC77
:1009680005F0000E1B6E000E206E000E1F6E080EA6
:10097800396E000E1E6E000E1D6E000E1C6E9D8AD6
:100988001200080E3960CBEF04F0CDEF04F0E3EF6E
:1009980004F0110E1F24D96EDA6A000EDA22DF5035
:1009A800AD6E1F2A070E1F64DCEF04F0DEEF04F0C3
:1009B800E0EF04F0000E1F6E392AE4EF04F09D9872
:1009C8001200000E266E470E256E38EC02F0000E5F
:1009D800266E480E256E38EC02F0070E2A6E580E69
:1009E800296E5A0EE82EFED7292EFCD72A2EFAD7C2
:1009F8001200090E1E24D96EDA6A000EDA22AECF72
:100A0800DFFF1E2A070E1E640CEF05F00EEF05F03F
:100A180010EF05F0000E1E6E1C2A1200000E896EE3
:100A2800000E8A6E000E8B6EC00E926E9368800E5A
:100A3800946E1F0E0F015D6F000E5C6F000E5B6FF2
:100A4800F18E120000EE01F0200EEE6AE806FDE1DC
:100A58003A903A92000EF86E000107EF01F064EC4C
:100A680005F012EC05F03CEC05F08BEC04F01200FC
:100A7800600ED36E000ED26E000E9B6E000E9A6E44
:100A8800120025C037F026C038F0120025C035F016
:100A980026C036F0120025C031F026C032F0120010
:100AA80025C033F026C034F0120025C02FF026C030
:100AB80030F01200AB98AB881200FDEC04F0120085
:060AC800D09E1200120096
:020000040020DA
:08000000FFFFFFFFFFFFFFFF00
:020000040030CA
:0E00000015027F7CFF8991FF0FC00FE00F40BB
:00000001FF
