:0400000058EF00F0C5
:100008003282FACF2AF0FBCF2BF0D9CF2CF0DACFFF
:100018002DF0F2AC12EF00F014EF00F04EEF00F00C
:100028009DA819EF00F01BEF00F031EF00F09EA83B
:1000380020EF00F022EF00F031EF00F002D82FEFB0
:1000480000F00500FA6E2750FD6E2850FE6EF8503D
:10005800FF6EFA5012004EEF00F09DAA36EF00F046
:1000680038EF00F04EEF00F09EAA3DEF00F03FEFB2
:1000780000F04EEF00F002D84CEF00F00500FA6EE9
:100088002550FD6E2650FE6EF850FF6EFA50120095
:100098004EEF00F02DC0DAFF2CC0D9FF2BC0FBFFBC
:1000A8002AC0FAFF32921100CAEF01F092EF00F075
:1000B8008980E8EF00F08982E8EF00F08984E8EFB2
:1000C80000F08986E8EF00F0898AE8EF00F08A827C
:1000D800E8EF00F08A84E8EF00F08A86E8EF00F0A5
:1000E8008A88E8EF00F08A8AE8EF00F08A8CE8EF67
:1000F80000F08A8EE8EF00F08B80E8EF00F08B824A
:10010800E8EF00F08B84E8EF00F08B86E8EF00F072
:100118008B88E8EF00F08B8AE8EF00F02EC030F013
:100128002FC031F03150000AD8B49DEF00F0E8EF4D
:1001380000F03050320AD8B45CEF00F0010AD8B4AD
:100148005FEF00F0070AD8B462EF00F0010AD8B4F4
:1001580065EF00F0020AD8B468EF00F00A0AD8B4D4
:100168006BEF00F0030AD8B46EEF00F0010AD8B4C0
:1001780071EF00F07F0AD8B474EF00F0010AD8B428
:1001880077EF00F0030AD8B47AEF00F0010AD8B488
:100198007DEF00F0050AD8B480EF00F0010AD8B46A
:1001A80083EF00F00F0AD8B486EF00F0010AD8B444
:1001B80089EF00F0030AD8B48CEF00F0010AD8B434
:1001C8008FEF00F0E8EF00F01200010E1C24D96E4A
:1001D800DA6A000EDA22000EDF6EABA4F6EF00F04A
:1001E800F8EF00F00CEF01F0010E1C24D96EDA6A6A
:1001F800000EDA22DF8202D80CEF01F00500FA6E59
:100208002350FD6E2450FE6EF850FF6EFA50120017
:10021800ABA211EF01F013EF01F027EF01F0010E8F
:100228001C24D96EDA6A000EDA22DF8402D827EF9E
:1002380001F00500FA6E2150FD6E2250FE6EF85056
:10024800FF6EFA501200010E1C24D96EDA6A000EF5
:10025800DA22DF50D8B433EF01F035EF01F044EF84
:1002680001F002D842EF01F00500FA6E1F50FD6E52
:100278002050FE6EF850FF6EFA50120046EF01F063
:10028800A1EC01F012009D9AD20E2E6E010E2F6E77
:10029800FAEC01F09D98020E2E6E030E2F6EF5EC0F
:1002A80001F0080EA76E900EAB6E240EAC6E080E11
:1002B800AF6E020E7D6E2C0E2E6E040E2F6E04ECA9
:1002C80002F01C0E2E6E040E2F6EFFEC01F0220EB3
:1002D8002E6E040E2F6E09EC02F0000E196E000E41
:1002E8001E6E000E1D6E080E296E000E1C6E000E8E
:1002F8001B6E000E1A6E9D8A1200080E296087EF89
:1003080001F089EF01F09FEF01F0110E1D24D96E65
:10031800DA6A000EDA22DF50AD6E1D2A070E1D6460
:1003280098EF01F09AEF01F09CEF01F0000E1D6EBE
:10033800292AA0EF01F09D981200090E1C24D96EFD
:10034800DA6A000EDA22AECFDFFF1C2A070E1C6421
:10035800B0EF01F0B2EF01F0B4EF01F0000E1C6E47
:100368001A2A1200000E896E000E8A6E000E8B6E1D
:10037800C00E926E9368800E946E1F0E0F015D6F13
:10038800000E5C6F000E5B6FF18E120000EE01F044
:100398001E0EEE6AE806FDE132903292000EF86E0B
:1003A8000001D7EF01F0E3EC01F0000E2F6E370EDD
:1003B8002E6E5AEC00F0DFEF01F058EF00F014EC6D
:1003C80002F0B6EC01F0ECEC01F047EC01F01200A1
:1003D800600ED36E000ED26E000E9B6E000E9A6EEB
:1003E80012002EC027F02FC028F012002EC025F0D2
:1003F8002FC026F012002EC021F02FC022F01200CC
:100408002EC023F02FC024F012002EC01FF02FC0E2
:1004180020F01200AB98AB881200A1EC01F012009A
:06042800D09E120012003C
:020000040020DA
:08000000FFFFFFFFFFFFFFFF00
:020000040030CA
:0E00000015027F7CFF8991FF0FC00FE00F40BB
:00000001FF
