:0400000058EF00F0C5
:100008003082FACF2AF0FBCF2BF0D9CF2CF0DACF01
:100018002DF0F2AC12EF00F014EF00F04EEF00F00C
:100028009DA819EF00F01BEF00F031EF00F09EA83B
:1000380020EF00F022EF00F031EF00F002D82FEFB0
:1000480000F00500FA6E2750FD6E2850FE6EF8503D
:10005800FF6EFA5012004EEF00F09DAA36EF00F046
:1000680038EF00F04EEF00F09EAA3DEF00F03FEFB2
:1000780000F04EEF00F002D84CEF00F00500FA6EE9
:100088002550FD6E2650FE6EF850FF6EFA50120095
:100098004EEF00F02DC0DAFF2CC0D9FF2BC0FBFFBC
:1000A8002AC0FAFF309211003BEF01F0010E1C2428
:1000B800D96EDA6A000EDA22000EDF6EABA467EFA3
:1000C80000F069EF00F07DEF00F0010E1C24D96EFE
:1000D800DA6A000EDA22DF8202D87DEF00F005002E
:1000E800FA6E2350FD6E2450FE6EF850FF6EFA50E3
:1000F8001200ABA282EF00F084EF00F098EF00F05E
:10010800010E1C24D96EDA6A000EDA22DF8402D8C6
:1001180098EF00F00500FA6E2150FD6E2250FE6E39
:10012800F850FF6EFA501200010E1C24D96EDA6ADC
:10013800000EDA22DF50D8B4A4EF00F0A6EF00F0EA
:10014800B5EF00F002D8B3EF00F00500FA6E1F50CB
:10015800FD6E2050FE6EF850FF6EFA501200B7EF99
:1001680000F012EC01F012009D9AB40E2E6E000EF3
:100178002F6E65EC01F09D98E40E2E6E010E2F6E29
:1001880060EC01F0080EA76E900EAB6E240EAC6EFC
:10019800080EAF6E020E7D6E020E2E6E030E2F6ECF
:1001A8006FEC01F0F20E2E6E020E2F6E6AEC01F06B
:1001B800F80E2E6E020E2F6E74EC01F0000E196E02
:1001C800000E1E6E000E1D6E080E296E000E1C6EAF
:1001D800000E1B6E000E1A6E9D8A1200080E296012
:1001E800F8EF00F0FAEF00F010EF01F0110E1D2407
:1001F800D96EDA6A000EDA22DF50AD6E1D2A070EBC
:100208001D6409EF01F00BEF01F00DEF01F0000E96
:100218001D6E292A11EF01F09D981200090E1C2469
:10022800D96EDA6A000EDA22AECFDFFF1C2A070E7B
:100238001C6421EF01F023EF01F025EF01F0000E1F
:100248001C6E1A2A1200000E896E000E8A6E000EAD
:100258008B6EC00E926E9368800E946E1F0E0F0107
:100268005D6F000E5C6F000E5B6FF18E120000EE8A
:1002780001F01E0EEE6AE806FDE130903092000EA5
:10028800F86E00015AEF01F07FEC01F027EC01F065
:1002980051EC01F0B8EC00F01200600ED36E000EC5
:1002A800D26E000E9B6E000E9A6E120048EC01F0A2
:1002B8005CEF01F058EF00F02EC027F02FC028F0B7
:1002C80012002EC025F02FC026F012002EC021F0FB
:1002D8002FC022F012002EC023F02FC024F01200ED
:1002E8002EC01FF02FC020F01200AB98AB88120070
:0C02F80012EC01F01200D09E1200120067
:020000040020DA
:08000000FFFFFFFFFFFFFFFF00
:020000040030CA
:0E00000015027F7CFF8991FF0FC00FE00F40BB
:00000001FF
